{
  "contractName": "AvilaToken",
  "abi": [
    {
      "constant": true,
      "inputs": [],
      "name": "totalSupply",
      "outputs": [
        {
          "name": "",
          "type": "uint256"
        }
      ],
      "payable": false,
      "stateMutability": "view",
      "type": "function"
    },
    {
      "inputs": [],
      "payable": false,
      "stateMutability": "nonpayable",
      "type": "constructor"
    }
  ],
  "bytecode": "0x608060405234801561001057600080fd5b50620f4240600081905550609e806100296000396000f300608060405260043610603f576000357c0100000000000000000000000000000000000000000000000000000000900463ffffffff16806318160ddd146044575b600080fd5b348015604f57600080fd5b506056606c565b6040518082815260200191505060405180910390f35b600054815600a165627a7a72305820edbb2cfdeb8cf6bdf21b3e79a2b5d23e49297d2b5125a1076173c9d7430399910029",
  "source": "pragma solidity ^0.4.23;\n\ncontract AvilaToken {\n  // Constructor\n  // Set the number of tokens\n  // Read the number of tokens\n\n  uint256 public totalSupply;\n\n  constructor () public {\n    totalSupply = 1000000; // State variable (If we change this variable we are writting on the blockchain)\n\n  }\n}\n",
  "sourcePath": "/Users/laura/Documents/BLOCKCHAIN/avcoin/contracts/AvilaToken.sol",
  "compiler": {
    "name": "solc",
    "version": "0.4.24+commit.e67f0147.Emscripten.clang"
  },
  "schemaVersion": "2.0.0",
  "updatedAt": "2018-05-28T18:00:12.111Z"
}